{
	"contracts/calculator 1B.sol": {
		"calculator": {
			"abi": [
				{
					"inputs": [
						{
							"internalType": "uint256",
							"name": "a",
							"type": "uint256"
						},
						{
							"internalType": "uint256",
							"name": "b",
							"type": "uint256"
						}
					],
					"name": "add",
					"outputs": [],
					"stateMutability": "nonpayable",
					"type": "function"
				},
				{
					"inputs": [
						{
							"internalType": "uint256",
							"name": "a",
							"type": "uint256"
						},
						{
							"internalType": "uint256",
							"name": "b",
							"type": "uint256"
						}
					],
					"name": "div",
					"outputs": [],
					"stateMutability": "nonpayable",
					"type": "function"
				},
				{
					"inputs": [],
					"name": "getResult",
					"outputs": [
						{
							"internalType": "uint256",
							"name": "",
							"type": "uint256"
						}
					],
					"stateMutability": "view",
					"type": "function"
				},
				{
					"inputs": [
						{
							"internalType": "uint256",
							"name": "a",
							"type": "uint256"
						},
						{
							"internalType": "uint256",
							"name": "b",
							"type": "uint256"
						}
					],
					"name": "mult",
					"outputs": [],
					"stateMutability": "nonpayable",
					"type": "function"
				},
				{
					"inputs": [
						{
							"internalType": "uint256",
							"name": "a",
							"type": "uint256"
						},
						{
							"internalType": "uint256",
							"name": "b",
							"type": "uint256"
						}
					],
					"name": "subtract",
					"outputs": [],
					"stateMutability": "nonpayable",
					"type": "function"
				}
			],
			"devdoc": {
				"kind": "dev",
				"methods": {},
				"version": 1
			},
			"evm": {
				"assembly": "    /* \"contracts/calculator 1B.sol\":74:556  contract calculator{... */\n  mstore(0x40, 0x80)\n  callvalue\n  dup1\n  iszero\n  tag_1\n  jumpi\n  0x00\n  dup1\n  revert\ntag_1:\n  pop\n  dataSize(sub_0)\n  dup1\n  dataOffset(sub_0)\n  0x00\n  codecopy\n  0x00\n  return\nstop\n\nsub_0: assembly {\n        /* \"contracts/calculator 1B.sol\":74:556  contract calculator{... */\n      mstore(0x40, 0x80)\n      callvalue\n      dup1\n      iszero\n      tag_1\n      jumpi\n      0x00\n      dup1\n      revert\n    tag_1:\n      pop\n      jumpi(tag_2, lt(calldatasize, 0x04))\n      shr(0xe0, calldataload(0x00))\n      dup1\n      0x3ef5e445\n      eq\n      tag_3\n      jumpi\n      dup1\n      0x771602f7\n      eq\n      tag_4\n      jumpi\n      dup1\n      0x9aa727f6\n      eq\n      tag_5\n      jumpi\n      dup1\n      0xa391c15b\n      eq\n      tag_6\n      jumpi\n      dup1\n      0xde292789\n      eq\n      tag_7\n      jumpi\n    tag_2:\n      0x00\n      dup1\n      revert\n        /* \"contracts/calculator 1B.sol\":208:290  function subtract(uint256 a, uint256 b) public  {... */\n    tag_3:\n      tag_8\n      0x04\n      dup1\n      calldatasize\n      sub\n      dup2\n      add\n      swap1\n      tag_9\n      swap2\n      swap1\n      tag_10\n      jump\t// in\n    tag_9:\n      tag_11\n      jump\t// in\n    tag_8:\n      stop\n        /* \"contracts/calculator 1B.sol\":123:200  function add(uint256 a, uint256 b) public  {... */\n    tag_4:\n      tag_12\n      0x04\n      dup1\n      calldatasize\n      sub\n      dup2\n      add\n      swap1\n      tag_13\n      swap2\n      swap1\n      tag_10\n      jump\t// in\n    tag_13:\n      tag_14\n      jump\t// in\n    tag_12:\n      stop\n        /* \"contracts/calculator 1B.sol\":298:376  function mult(uint256 a, uint256 b) public  {... */\n    tag_5:\n      tag_15\n      0x04\n      dup1\n      calldatasize\n      sub\n      dup2\n      add\n      swap1\n      tag_16\n      swap2\n      swap1\n      tag_10\n      jump\t// in\n    tag_16:\n      tag_17\n      jump\t// in\n    tag_15:\n      stop\n        /* \"contracts/calculator 1B.sol\":384:461  function div(uint256 a, uint256 b) public  {... */\n    tag_6:\n      tag_18\n      0x04\n      dup1\n      calldatasize\n      sub\n      dup2\n      add\n      swap1\n      tag_19\n      swap2\n      swap1\n      tag_10\n      jump\t// in\n    tag_19:\n      tag_20\n      jump\t// in\n    tag_18:\n      stop\n        /* \"contracts/calculator 1B.sol\":469:553  function getResult() public view returns  (uint256){... */\n    tag_7:\n      tag_21\n      tag_22\n      jump\t// in\n    tag_21:\n      mload(0x40)\n      tag_23\n      swap2\n      swap1\n      tag_24\n      jump\t// in\n    tag_23:\n      mload(0x40)\n      dup1\n      swap2\n      sub\n      swap1\n      return\n        /* \"contracts/calculator 1B.sol\":208:290  function subtract(uint256 a, uint256 b) public  {... */\n    tag_11:\n        /* \"contracts/calculator 1B.sol\":280:281  b */\n      dup1\n        /* \"contracts/calculator 1B.sol\":276:277  a */\n      dup3\n        /* \"contracts/calculator 1B.sol\":276:281  a - b */\n      tag_26\n      swap2\n      swap1\n      tag_27\n      jump\t// in\n    tag_26:\n        /* \"contracts/calculator 1B.sol\":267:273  result */\n      0x00\n        /* \"contracts/calculator 1B.sol\":267:281  result = a - b */\n      dup2\n      swap1\n      sstore\n      pop\n        /* \"contracts/calculator 1B.sol\":208:290  function subtract(uint256 a, uint256 b) public  {... */\n      pop\n      pop\n      jump\t// out\n        /* \"contracts/calculator 1B.sol\":123:200  function add(uint256 a, uint256 b) public  {... */\n    tag_14:\n        /* \"contracts/calculator 1B.sol\":190:191  b */\n      dup1\n        /* \"contracts/calculator 1B.sol\":186:187  a */\n      dup3\n        /* \"contracts/calculator 1B.sol\":186:191  a + b */\n      tag_29\n      swap2\n      swap1\n      tag_30\n      jump\t// in\n    tag_29:\n        /* \"contracts/calculator 1B.sol\":177:183  result */\n      0x00\n        /* \"contracts/calculator 1B.sol\":177:191  result = a + b */\n      dup2\n      swap1\n      sstore\n      pop\n        /* \"contracts/calculator 1B.sol\":123:200  function add(uint256 a, uint256 b) public  {... */\n      pop\n      pop\n      jump\t// out\n        /* \"contracts/calculator 1B.sol\":298:376  function mult(uint256 a, uint256 b) public  {... */\n    tag_17:\n        /* \"contracts/calculator 1B.sol\":366:367  b */\n      dup1\n        /* \"contracts/calculator 1B.sol\":362:363  a */\n      dup3\n        /* \"contracts/calculator 1B.sol\":362:367  a * b */\n      tag_32\n      swap2\n      swap1\n      tag_33\n      jump\t// in\n    tag_32:\n        /* \"contracts/calculator 1B.sol\":353:359  result */\n      0x00\n        /* \"contracts/calculator 1B.sol\":353:367  result = a * b */\n      dup2\n      swap1\n      sstore\n      pop\n        /* \"contracts/calculator 1B.sol\":298:376  function mult(uint256 a, uint256 b) public  {... */\n      pop\n      pop\n      jump\t// out\n        /* \"contracts/calculator 1B.sol\":384:461  function div(uint256 a, uint256 b) public  {... */\n    tag_20:\n        /* \"contracts/calculator 1B.sol\":451:452  b */\n      dup1\n        /* \"contracts/calculator 1B.sol\":447:448  a */\n      dup3\n        /* \"contracts/calculator 1B.sol\":447:452  a / b */\n      tag_35\n      swap2\n      swap1\n      tag_36\n      jump\t// in\n    tag_35:\n        /* \"contracts/calculator 1B.sol\":438:444  result */\n      0x00\n        /* \"contracts/calculator 1B.sol\":438:452  result = a / b */\n      dup2\n      swap1\n      sstore\n      pop\n        /* \"contracts/calculator 1B.sol\":384:461  function div(uint256 a, uint256 b) public  {... */\n      pop\n      pop\n      jump\t// out\n        /* \"contracts/calculator 1B.sol\":469:553  function getResult() public view returns  (uint256){... */\n    tag_22:\n        /* \"contracts/calculator 1B.sol\":512:519  uint256 */\n      0x00\n        /* \"contracts/calculator 1B.sol\":538:544  result */\n      dup1\n      sload\n        /* \"contracts/calculator 1B.sol\":531:544  return result */\n      swap1\n      pop\n        /* \"contracts/calculator 1B.sol\":469:553  function getResult() public view returns  (uint256){... */\n      swap1\n      jump\t// out\n        /* \"#utility.yul\":88:205   */\n    tag_39:\n        /* \"#utility.yul\":197:198   */\n      0x00\n        /* \"#utility.yul\":194:195   */\n      dup1\n        /* \"#utility.yul\":187:199   */\n      revert\n        /* \"#utility.yul\":334:411   */\n    tag_41:\n        /* \"#utility.yul\":371:378   */\n      0x00\n        /* \"#utility.yul\":400:405   */\n      dup2\n        /* \"#utility.yul\":389:405   */\n      swap1\n      pop\n        /* \"#utility.yul\":334:411   */\n      swap2\n      swap1\n      pop\n      jump\t// out\n        /* \"#utility.yul\":417:539   */\n    tag_42:\n        /* \"#utility.yul\":490:514   */\n      tag_53\n        /* \"#utility.yul\":508:513   */\n      dup2\n        /* \"#utility.yul\":490:514   */\n      tag_41\n      jump\t// in\n    tag_53:\n        /* \"#utility.yul\":483:488   */\n      dup2\n        /* \"#utility.yul\":480:515   */\n      eq\n        /* \"#utility.yul\":470:533   */\n      tag_54\n      jumpi\n        /* \"#utility.yul\":529:530   */\n      0x00\n        /* \"#utility.yul\":526:527   */\n      dup1\n        /* \"#utility.yul\":519:531   */\n      revert\n        /* \"#utility.yul\":470:533   */\n    tag_54:\n        /* \"#utility.yul\":417:539   */\n      pop\n      jump\t// out\n        /* \"#utility.yul\":545:684   */\n    tag_43:\n        /* \"#utility.yul\":591:596   */\n      0x00\n        /* \"#utility.yul\":629:635   */\n      dup2\n        /* \"#utility.yul\":616:636   */\n      calldataload\n        /* \"#utility.yul\":607:636   */\n      swap1\n      pop\n        /* \"#utility.yul\":645:678   */\n      tag_56\n        /* \"#utility.yul\":672:677   */\n      dup2\n        /* \"#utility.yul\":645:678   */\n      tag_42\n      jump\t// in\n    tag_56:\n        /* \"#utility.yul\":545:684   */\n      swap3\n      swap2\n      pop\n      pop\n      jump\t// out\n        /* \"#utility.yul\":690:1164   */\n    tag_10:\n        /* \"#utility.yul\":758:764   */\n      0x00\n        /* \"#utility.yul\":766:772   */\n      dup1\n        /* \"#utility.yul\":815:817   */\n      0x40\n        /* \"#utility.yul\":803:812   */\n      dup4\n        /* \"#utility.yul\":794:801   */\n      dup6\n        /* \"#utility.yul\":790:813   */\n      sub\n        /* \"#utility.yul\":786:818   */\n      slt\n        /* \"#utility.yul\":783:902   */\n      iszero\n      tag_58\n      jumpi\n        /* \"#utility.yul\":821:900   */\n      tag_59\n      tag_39\n      jump\t// in\n    tag_59:\n        /* \"#utility.yul\":783:902   */\n    tag_58:\n        /* \"#utility.yul\":941:942   */\n      0x00\n        /* \"#utility.yul\":966:1019   */\n      tag_60\n        /* \"#utility.yul\":1011:1018   */\n      dup6\n        /* \"#utility.yul\":1002:1008   */\n      dup3\n        /* \"#utility.yul\":991:1000   */\n      dup7\n        /* \"#utility.yul\":987:1009   */\n      add\n        /* \"#utility.yul\":966:1019   */\n      tag_43\n      jump\t// in\n    tag_60:\n        /* \"#utility.yul\":956:1019   */\n      swap3\n      pop\n        /* \"#utility.yul\":912:1029   */\n      pop\n        /* \"#utility.yul\":1068:1070   */\n      0x20\n        /* \"#utility.yul\":1094:1147   */\n      tag_61\n        /* \"#utility.yul\":1139:1146   */\n      dup6\n        /* \"#utility.yul\":1130:1136   */\n      dup3\n        /* \"#utility.yul\":1119:1128   */\n      dup7\n        /* \"#utility.yul\":1115:1137   */\n      add\n        /* \"#utility.yul\":1094:1147   */\n      tag_43\n      jump\t// in\n    tag_61:\n        /* \"#utility.yul\":1084:1147   */\n      swap2\n      pop\n        /* \"#utility.yul\":1039:1157   */\n      pop\n        /* \"#utility.yul\":690:1164   */\n      swap3\n      pop\n      swap3\n      swap1\n      pop\n      jump\t// out\n        /* \"#utility.yul\":1170:1288   */\n    tag_44:\n        /* \"#utility.yul\":1257:1281   */\n      tag_63\n        /* \"#utility.yul\":1275:1280   */\n      dup2\n        /* \"#utility.yul\":1257:1281   */\n      tag_41\n      jump\t// in\n    tag_63:\n        /* \"#utility.yul\":1252:1255   */\n      dup3\n        /* \"#utility.yul\":1245:1282   */\n      mstore\n        /* \"#utility.yul\":1170:1288   */\n      pop\n      pop\n      jump\t// out\n        /* \"#utility.yul\":1294:1516   */\n    tag_24:\n        /* \"#utility.yul\":1387:1391   */\n      0x00\n        /* \"#utility.yul\":1425:1427   */\n      0x20\n        /* \"#utility.yul\":1414:1423   */\n      dup3\n        /* \"#utility.yul\":1410:1428   */\n      add\n        /* \"#utility.yul\":1402:1428   */\n      swap1\n      pop\n        /* \"#utility.yul\":1438:1509   */\n      tag_65\n        /* \"#utility.yul\":1506:1507   */\n      0x00\n        /* \"#utility.yul\":1495:1504   */\n      dup4\n        /* \"#utility.yul\":1491:1508   */\n      add\n        /* \"#utility.yul\":1482:1488   */\n      dup5\n        /* \"#utility.yul\":1438:1509   */\n      tag_44\n      jump\t// in\n    tag_65:\n        /* \"#utility.yul\":1294:1516   */\n      swap3\n      swap2\n      pop\n      pop\n      jump\t// out\n        /* \"#utility.yul\":1522:1702   */\n    tag_45:\n        /* \"#utility.yul\":1570:1647   */\n      0x4e487b7100000000000000000000000000000000000000000000000000000000\n        /* \"#utility.yul\":1567:1568   */\n      0x00\n        /* \"#utility.yul\":1560:1648   */\n      mstore\n        /* \"#utility.yul\":1667:1671   */\n      0x11\n        /* \"#utility.yul\":1664:1665   */\n      0x04\n        /* \"#utility.yul\":1657:1672   */\n      mstore\n        /* \"#utility.yul\":1691:1695   */\n      0x24\n        /* \"#utility.yul\":1688:1689   */\n      0x00\n        /* \"#utility.yul\":1681:1696   */\n      revert\n        /* \"#utility.yul\":1708:1902   */\n    tag_27:\n        /* \"#utility.yul\":1748:1752   */\n      0x00\n        /* \"#utility.yul\":1768:1788   */\n      tag_68\n        /* \"#utility.yul\":1786:1787   */\n      dup3\n        /* \"#utility.yul\":1768:1788   */\n      tag_41\n      jump\t// in\n    tag_68:\n        /* \"#utility.yul\":1763:1788   */\n      swap2\n      pop\n        /* \"#utility.yul\":1802:1822   */\n      tag_69\n        /* \"#utility.yul\":1820:1821   */\n      dup4\n        /* \"#utility.yul\":1802:1822   */\n      tag_41\n      jump\t// in\n    tag_69:\n        /* \"#utility.yul\":1797:1822   */\n      swap3\n      pop\n        /* \"#utility.yul\":1846:1847   */\n      dup3\n        /* \"#utility.yul\":1843:1844   */\n      dup3\n        /* \"#utility.yul\":1839:1848   */\n      sub\n        /* \"#utility.yul\":1831:1848   */\n      swap1\n      pop\n        /* \"#utility.yul\":1870:1871   */\n      dup2\n        /* \"#utility.yul\":1864:1868   */\n      dup2\n        /* \"#utility.yul\":1861:1872   */\n      gt\n        /* \"#utility.yul\":1858:1895   */\n      iszero\n      tag_70\n      jumpi\n        /* \"#utility.yul\":1875:1893   */\n      tag_71\n      tag_45\n      jump\t// in\n    tag_71:\n        /* \"#utility.yul\":1858:1895   */\n    tag_70:\n        /* \"#utility.yul\":1708:1902   */\n      swap3\n      swap2\n      pop\n      pop\n      jump\t// out\n        /* \"#utility.yul\":1908:2099   */\n    tag_30:\n        /* \"#utility.yul\":1948:1951   */\n      0x00\n        /* \"#utility.yul\":1967:1987   */\n      tag_73\n        /* \"#utility.yul\":1985:1986   */\n      dup3\n        /* \"#utility.yul\":1967:1987   */\n      tag_41\n      jump\t// in\n    tag_73:\n        /* \"#utility.yul\":1962:1987   */\n      swap2\n      pop\n        /* \"#utility.yul\":2001:2021   */\n      tag_74\n        /* \"#utility.yul\":2019:2020   */\n      dup4\n        /* \"#utility.yul\":2001:2021   */\n      tag_41\n      jump\t// in\n    tag_74:\n        /* \"#utility.yul\":1996:2021   */\n      swap3\n      pop\n        /* \"#utility.yul\":2044:2045   */\n      dup3\n        /* \"#utility.yul\":2041:2042   */\n      dup3\n        /* \"#utility.yul\":2037:2046   */\n      add\n        /* \"#utility.yul\":2030:2046   */\n      swap1\n      pop\n        /* \"#utility.yul\":2065:2068   */\n      dup1\n        /* \"#utility.yul\":2062:2063   */\n      dup3\n        /* \"#utility.yul\":2059:2069   */\n      gt\n        /* \"#utility.yul\":2056:2092   */\n      iszero\n      tag_75\n      jumpi\n        /* \"#utility.yul\":2072:2090   */\n      tag_76\n      tag_45\n      jump\t// in\n    tag_76:\n        /* \"#utility.yul\":2056:2092   */\n    tag_75:\n        /* \"#utility.yul\":1908:2099   */\n      swap3\n      swap2\n      pop\n      pop\n      jump\t// out\n        /* \"#utility.yul\":2105:2515   */\n    tag_33:\n        /* \"#utility.yul\":2145:2152   */\n      0x00\n        /* \"#utility.yul\":2168:2188   */\n      tag_78\n        /* \"#utility.yul\":2186:2187   */\n      dup3\n        /* \"#utility.yul\":2168:2188   */\n      tag_41\n      jump\t// in\n    tag_78:\n        /* \"#utility.yul\":2163:2188   */\n      swap2\n      pop\n        /* \"#utility.yul\":2202:2222   */\n      tag_79\n        /* \"#utility.yul\":2220:2221   */\n      dup4\n        /* \"#utility.yul\":2202:2222   */\n      tag_41\n      jump\t// in\n    tag_79:\n        /* \"#utility.yul\":2197:2222   */\n      swap3\n      pop\n        /* \"#utility.yul\":2257:2258   */\n      dup3\n        /* \"#utility.yul\":2254:2255   */\n      dup3\n        /* \"#utility.yul\":2250:2259   */\n      mul\n        /* \"#utility.yul\":2279:2309   */\n      tag_80\n        /* \"#utility.yul\":2297:2308   */\n      dup2\n        /* \"#utility.yul\":2279:2309   */\n      tag_41\n      jump\t// in\n    tag_80:\n        /* \"#utility.yul\":2268:2309   */\n      swap2\n      pop\n        /* \"#utility.yul\":2458:2459   */\n      dup3\n        /* \"#utility.yul\":2449:2456   */\n      dup3\n        /* \"#utility.yul\":2445:2460   */\n      div\n        /* \"#utility.yul\":2442:2443   */\n      dup5\n        /* \"#utility.yul\":2439:2461   */\n      eq\n        /* \"#utility.yul\":2419:2420   */\n      dup4\n        /* \"#utility.yul\":2412:2421   */\n      iszero\n        /* \"#utility.yul\":2392:2475   */\n      or\n        /* \"#utility.yul\":2369:2508   */\n      tag_81\n      jumpi\n        /* \"#utility.yul\":2488:2506   */\n      tag_82\n      tag_45\n      jump\t// in\n    tag_82:\n        /* \"#utility.yul\":2369:2508   */\n    tag_81:\n        /* \"#utility.yul\":2153:2515   */\n      pop\n        /* \"#utility.yul\":2105:2515   */\n      swap3\n      swap2\n      pop\n      pop\n      jump\t// out\n        /* \"#utility.yul\":2521:2701   */\n    tag_46:\n        /* \"#utility.yul\":2569:2646   */\n      0x4e487b7100000000000000000000000000000000000000000000000000000000\n        /* \"#utility.yul\":2566:2567   */\n      0x00\n        /* \"#utility.yul\":2559:2647   */\n      mstore\n        /* \"#utility.yul\":2666:2670   */\n      0x12\n        /* \"#utility.yul\":2663:2664   */\n      0x04\n        /* \"#utility.yul\":2656:2671   */\n      mstore\n        /* \"#utility.yul\":2690:2694   */\n      0x24\n        /* \"#utility.yul\":2687:2688   */\n      0x00\n        /* \"#utility.yul\":2680:2695   */\n      revert\n        /* \"#utility.yul\":2707:2892   */\n    tag_36:\n        /* \"#utility.yul\":2747:2748   */\n      0x00\n        /* \"#utility.yul\":2764:2784   */\n      tag_85\n        /* \"#utility.yul\":2782:2783   */\n      dup3\n        /* \"#utility.yul\":2764:2784   */\n      tag_41\n      jump\t// in\n    tag_85:\n        /* \"#utility.yul\":2759:2784   */\n      swap2\n      pop\n        /* \"#utility.yul\":2798:2818   */\n      tag_86\n        /* \"#utility.yul\":2816:2817   */\n      dup4\n        /* \"#utility.yul\":2798:2818   */\n      tag_41\n      jump\t// in\n    tag_86:\n        /* \"#utility.yul\":2793:2818   */\n      swap3\n      pop\n        /* \"#utility.yul\":2837:2838   */\n      dup3\n        /* \"#utility.yul\":2827:2862   */\n      tag_87\n      jumpi\n        /* \"#utility.yul\":2842:2860   */\n      tag_88\n      tag_46\n      jump\t// in\n    tag_88:\n        /* \"#utility.yul\":2827:2862   */\n    tag_87:\n        /* \"#utility.yul\":2884:2885   */\n      dup3\n        /* \"#utility.yul\":2881:2882   */\n      dup3\n        /* \"#utility.yul\":2877:2886   */\n      div\n        /* \"#utility.yul\":2872:2886   */\n      swap1\n      pop\n        /* \"#utility.yul\":2707:2892   */\n      swap3\n      swap2\n      pop\n      pop\n      jump\t// out\n\n    auxdata: 0xa26469706673582212201c095bdf9f58d69af17f2688c9d40b0a53c8c6aa59de0e8f47696ae8777b78e964736f6c634300081a0033\n}\n",
				"bytecode": {
					"linkReferences": {},
					"object": "6080604052348015600e575f80fd5b506103478061001c5f395ff3fe608060405234801561000f575f80fd5b5060043610610055575f3560e01c80633ef5e44514610059578063771602f7146100755780639aa727f614610091578063a391c15b146100ad578063de292789146100c9575b5f80fd5b610073600480360381019061006e919061017a565b6100e7565b005b61008f600480360381019061008a919061017a565b6100fc565b005b6100ab60048036038101906100a6919061017a565b610111565b005b6100c760048036038101906100c2919061017a565b610126565b005b6100d161013b565b6040516100de91906101c7565b60405180910390f35b80826100f3919061020d565b5f819055505050565b80826101089190610240565b5f819055505050565b808261011d9190610273565b5f819055505050565b808261013291906102e1565b5f819055505050565b5f8054905090565b5f80fd5b5f819050919050565b61015981610147565b8114610163575f80fd5b50565b5f8135905061017481610150565b92915050565b5f80604083850312156101905761018f610143565b5b5f61019d85828601610166565b92505060206101ae85828601610166565b9150509250929050565b6101c181610147565b82525050565b5f6020820190506101da5f8301846101b8565b92915050565b7f4e487b71000000000000000000000000000000000000000000000000000000005f52601160045260245ffd5b5f61021782610147565b915061022283610147565b925082820390508181111561023a576102396101e0565b5b92915050565b5f61024a82610147565b915061025583610147565b925082820190508082111561026d5761026c6101e0565b5b92915050565b5f61027d82610147565b915061028883610147565b925082820261029681610147565b915082820484148315176102ad576102ac6101e0565b5b5092915050565b7f4e487b71000000000000000000000000000000000000000000000000000000005f52601260045260245ffd5b5f6102eb82610147565b91506102f683610147565b925082610306576103056102b4565b5b82820490509291505056fea26469706673582212201c095bdf9f58d69af17f2688c9d40b0a53c8c6aa59de0e8f47696ae8777b78e964736f6c634300081a0033",
					"opcodes": "PUSH1 0x80 PUSH1 0x40 MSTORE CALLVALUE DUP1 ISZERO PUSH1 0xE JUMPI PUSH0 DUP1 REVERT JUMPDEST POP PUSH2 0x347 DUP1 PUSH2 0x1C PUSH0 CODECOPY PUSH0 RETURN INVALID PUSH1 0x80 PUSH1 0x40 MSTORE CALLVALUE DUP1 ISZERO PUSH2 0xF JUMPI PUSH0 DUP1 REVERT JUMPDEST POP PUSH1 0x4 CALLDATASIZE LT PUSH2 0x55 JUMPI PUSH0 CALLDATALOAD PUSH1 0xE0 SHR DUP1 PUSH4 0x3EF5E445 EQ PUSH2 0x59 JUMPI DUP1 PUSH4 0x771602F7 EQ PUSH2 0x75 JUMPI DUP1 PUSH4 0x9AA727F6 EQ PUSH2 0x91 JUMPI DUP1 PUSH4 0xA391C15B EQ PUSH2 0xAD JUMPI DUP1 PUSH4 0xDE292789 EQ PUSH2 0xC9 JUMPI JUMPDEST PUSH0 DUP1 REVERT JUMPDEST PUSH2 0x73 PUSH1 0x4 DUP1 CALLDATASIZE SUB DUP2 ADD SWAP1 PUSH2 0x6E SWAP2 SWAP1 PUSH2 0x17A JUMP JUMPDEST PUSH2 0xE7 JUMP JUMPDEST STOP JUMPDEST PUSH2 0x8F PUSH1 0x4 DUP1 CALLDATASIZE SUB DUP2 ADD SWAP1 PUSH2 0x8A SWAP2 SWAP1 PUSH2 0x17A JUMP JUMPDEST PUSH2 0xFC JUMP JUMPDEST STOP JUMPDEST PUSH2 0xAB PUSH1 0x4 DUP1 CALLDATASIZE SUB DUP2 ADD SWAP1 PUSH2 0xA6 SWAP2 SWAP1 PUSH2 0x17A JUMP JUMPDEST PUSH2 0x111 JUMP JUMPDEST STOP JUMPDEST PUSH2 0xC7 PUSH1 0x4 DUP1 CALLDATASIZE SUB DUP2 ADD SWAP1 PUSH2 0xC2 SWAP2 SWAP1 PUSH2 0x17A JUMP JUMPDEST PUSH2 0x126 JUMP JUMPDEST STOP JUMPDEST PUSH2 0xD1 PUSH2 0x13B JUMP JUMPDEST PUSH1 0x40 MLOAD PUSH2 0xDE SWAP2 SWAP1 PUSH2 0x1C7 JUMP JUMPDEST PUSH1 0x40 MLOAD DUP1 SWAP2 SUB SWAP1 RETURN JUMPDEST DUP1 DUP3 PUSH2 0xF3 SWAP2 SWAP1 PUSH2 0x20D JUMP JUMPDEST PUSH0 DUP2 SWAP1 SSTORE POP POP POP JUMP JUMPDEST DUP1 DUP3 PUSH2 0x108 SWAP2 SWAP1 PUSH2 0x240 JUMP JUMPDEST PUSH0 DUP2 SWAP1 SSTORE POP POP POP JUMP JUMPDEST DUP1 DUP3 PUSH2 0x11D SWAP2 SWAP1 PUSH2 0x273 JUMP JUMPDEST PUSH0 DUP2 SWAP1 SSTORE POP POP POP JUMP JUMPDEST DUP1 DUP3 PUSH2 0x132 SWAP2 SWAP1 PUSH2 0x2E1 JUMP JUMPDEST PUSH0 DUP2 SWAP1 SSTORE POP POP POP JUMP JUMPDEST PUSH0 DUP1 SLOAD SWAP1 POP SWAP1 JUMP JUMPDEST PUSH0 DUP1 REVERT JUMPDEST PUSH0 DUP2 SWAP1 POP SWAP2 SWAP1 POP JUMP JUMPDEST PUSH2 0x159 DUP2 PUSH2 0x147 JUMP JUMPDEST DUP2 EQ PUSH2 0x163 JUMPI PUSH0 DUP1 REVERT JUMPDEST POP JUMP JUMPDEST PUSH0 DUP2 CALLDATALOAD SWAP1 POP PUSH2 0x174 DUP2 PUSH2 0x150 JUMP JUMPDEST SWAP3 SWAP2 POP POP JUMP JUMPDEST PUSH0 DUP1 PUSH1 0x40 DUP4 DUP6 SUB SLT ISZERO PUSH2 0x190 JUMPI PUSH2 0x18F PUSH2 0x143 JUMP JUMPDEST JUMPDEST PUSH0 PUSH2 0x19D DUP6 DUP3 DUP7 ADD PUSH2 0x166 JUMP JUMPDEST SWAP3 POP POP PUSH1 0x20 PUSH2 0x1AE DUP6 DUP3 DUP7 ADD PUSH2 0x166 JUMP JUMPDEST SWAP2 POP POP SWAP3 POP SWAP3 SWAP1 POP JUMP JUMPDEST PUSH2 0x1C1 DUP2 PUSH2 0x147 JUMP JUMPDEST DUP3 MSTORE POP POP JUMP JUMPDEST PUSH0 PUSH1 0x20 DUP3 ADD SWAP1 POP PUSH2 0x1DA PUSH0 DUP4 ADD DUP5 PUSH2 0x1B8 JUMP JUMPDEST SWAP3 SWAP2 POP POP JUMP JUMPDEST PUSH32 0x4E487B7100000000000000000000000000000000000000000000000000000000 PUSH0 MSTORE PUSH1 0x11 PUSH1 0x4 MSTORE PUSH1 0x24 PUSH0 REVERT JUMPDEST PUSH0 PUSH2 0x217 DUP3 PUSH2 0x147 JUMP JUMPDEST SWAP2 POP PUSH2 0x222 DUP4 PUSH2 0x147 JUMP JUMPDEST SWAP3 POP DUP3 DUP3 SUB SWAP1 POP DUP2 DUP2 GT ISZERO PUSH2 0x23A JUMPI PUSH2 0x239 PUSH2 0x1E0 JUMP JUMPDEST JUMPDEST SWAP3 SWAP2 POP POP JUMP JUMPDEST PUSH0 PUSH2 0x24A DUP3 PUSH2 0x147 JUMP JUMPDEST SWAP2 POP PUSH2 0x255 DUP4 PUSH2 0x147 JUMP JUMPDEST SWAP3 POP DUP3 DUP3 ADD SWAP1 POP DUP1 DUP3 GT ISZERO PUSH2 0x26D JUMPI PUSH2 0x26C PUSH2 0x1E0 JUMP JUMPDEST JUMPDEST SWAP3 SWAP2 POP POP JUMP JUMPDEST PUSH0 PUSH2 0x27D DUP3 PUSH2 0x147 JUMP JUMPDEST SWAP2 POP PUSH2 0x288 DUP4 PUSH2 0x147 JUMP JUMPDEST SWAP3 POP DUP3 DUP3 MUL PUSH2 0x296 DUP2 PUSH2 0x147 JUMP JUMPDEST SWAP2 POP DUP3 DUP3 DIV DUP5 EQ DUP4 ISZERO OR PUSH2 0x2AD JUMPI PUSH2 0x2AC PUSH2 0x1E0 JUMP JUMPDEST JUMPDEST POP SWAP3 SWAP2 POP POP JUMP JUMPDEST PUSH32 0x4E487B7100000000000000000000000000000000000000000000000000000000 PUSH0 MSTORE PUSH1 0x12 PUSH1 0x4 MSTORE PUSH1 0x24 PUSH0 REVERT JUMPDEST PUSH0 PUSH2 0x2EB DUP3 PUSH2 0x147 JUMP JUMPDEST SWAP2 POP PUSH2 0x2F6 DUP4 PUSH2 0x147 JUMP JUMPDEST SWAP3 POP DUP3 PUSH2 0x306 JUMPI PUSH2 0x305 PUSH2 0x2B4 JUMP JUMPDEST JUMPDEST DUP3 DUP3 DIV SWAP1 POP SWAP3 SWAP2 POP POP JUMP INVALID LOG2 PUSH5 0x6970667358 0x22 SLT KECCAK256 SHR MULMOD JUMPDEST 0xDF SWAP16 PC 0xD6 SWAP11 CALL PUSH32 0x2688C9D40B0A53C8C6AA59DE0E8F47696AE8777B78E964736F6C634300081A00 CALLER "
				},
				"gasEstimates": {
					"creation": {
						"codeDepositCost": "167800",
						"executionCost": "212",
						"totalCost": "168012"
					},
					"external": {
						"add(uint256,uint256)": "infinite",
						"div(uint256,uint256)": "infinite",
						"getResult()": "2498",
						"mult(uint256,uint256)": "infinite",
						"subtract(uint256,uint256)": "infinite"
					}
				},
				"methodIdentifiers": {
					"add(uint256,uint256)": "771602f7",
					"div(uint256,uint256)": "a391c15b",
					"getResult()": "de292789",
					"mult(uint256,uint256)": "9aa727f6",
					"subtract(uint256,uint256)": "3ef5e445"
				}
			},
			"storageLayout": {
				"storage": [
					{
						"astId": 3,
						"contract": "contracts/calculator 1B.sol:calculator",
						"label": "result",
						"offset": 0,
						"slot": "0",
						"type": "t_uint256"
					}
				],
				"types": {
					"t_uint256": {
						"encoding": "inplace",
						"label": "uint256",
						"numberOfBytes": "32"
					}
				}
			},
			"userdoc": {
				"kind": "user",
				"methods": {},
				"version": 1
			}
		}
	}
}